:02000000AA282C
:08000800DF00030E8312A000CB
:0E0010000A0EA100040EA2008A110A12B028E6
:10002000FF238312831683169000831283120830F5
:10003000831685008312850083169F010730831283
:100040009900883083168100961583128B15A801BC
:10005000A901AA01A701A501A6018B170B1708008A
:1000600010208A110A12281C3B288101A901AA012B
:100070008B1628107828281D78282903031D71283D
:1000800085197128A708031D5028A501A601810123
:10009000A301A4010A30A7000512051085146828E1
:1000A00027080A3A031D5A281430A7000512051420
:1000B000851068282708143A031D64281E30A700FD
:1000C0000516051085106828A70105120510851072
:1000D0002708003C03186E280515772805118B1298
:1000E00077282908023C0318772885198B152811D1
:1000F000A81CA42826082702AB002B08143C0318D0
:1001000087280508103A85000510851099282608CB
:100110002702AC002C080A3C031894280512050895
:10012000013A850085109928051205100508023A44
:10013000850027082602031CA3280511A701051224
:10014000051085108B12A8108B1A31288B156300AF
:10015000000031288312A301A4018A110A12302859
:1001600083120B1CBA288B1DBA2828140508AD0071
:100170000B108B110B1DE8288B1EE8281030A307ED
:100180000318A40AF4302402031DC82824302302D3
:10019000031CDB282430A302F430031CA403A402B4
:1001A000A7080319DB28A50A25083C3A031DDA280D
:1001B000A60AA501A8140A3029020318E728AA0AEA
:1001C0002A08C83A031DE728A90AAA0128150B1115
:1001D000220E8400210E8A00200E8300DF0E5F0EA7
:0201E000090014
:02400E00C13FB0
:00000001FF
