:02000000912944
:08000800DF00030E8312A000CB
:0E0010000A0EA100040EA2008A110A12942901
:100020000330AD07AD0CAD0C7F30AD050000AD0B5E
:1000300016280800C611C511C0132A08C4000510EF
:10004000851042118030AB00AB08031947282B08FC
:100050002A0503192E288316851430288316851047
:100060000A308312AD001020831605148312051880
:100070003B28640036280A30AD0010208316051096
:100080000A308312AD0010200310AB0C2428C515D4
:100090004116C112831685140A308312AD00102058
:1000A00083160514831205185728640052280A3055
:1000B000AD0010202C1085182C140A30AD00102033
:1000C00083160510831241120A30AD001020AD01D5
:1000D0002C18AD0A08008312C611C51141150A304B
:1000E000AD001020051085108316051085100A300C
:1000F0008312AD0010208316051483120518822880
:1001000064007D280A30AD001020831685140A3063
:100110008312AD001020851C8F2805189328C61562
:10012000C21141110800421641114110C110C11104
:10013000411208000A308312AD001020C611C5110B
:100140004114831605148514831205108510051CAF
:10015000C628851CC6280A30AD0010200518B42812
:10016000C615C215411008008510831685100A3087
:100170008312AD0010200510831605100A3083127B
:10018000AD001020C2154110C5150800C615C215D6
:100190004110C1104111C111411208009A20D03004
:1001A000AA001A202808AA001A202908AA001A2042
:1001B0006B2008008316851405148312C0012808DB
:1001C000C3000830C000C101C201C217C511C61169
:1001D00085100510C0166B2008009A20D030AA00A8
:1001E0001A20AA011A20AA011A20AA011A20AA017B
:1001F0001A200130AA001A200130AA001A20AA01F0
:100200001A206B2008000E308312A8008030A9004D
:10021000CE200F30A8008030A900CE200800FF2398
:100220008312831683169000831283122B30831659
:10023000850008308312850083169F0107308312E2
:1002400099001130831681003D3083128100063001
:100250009000FF308F008E0083160C1496158312C9
:100260008B15A601A701A501A301A4010130A800D7
:100270008A110A12DA20ED2003218B170B170800D0
:100280000F308312A8008030A900CE2008000F3064
:100290008312A800A901CE2008000F21261C552991
:1002A0003D3081008B1626107829A61C782927035B
:1002B000031D6E2985196E29A508031D66290130C5
:1002C000A50047210516051510147729A50105126B
:1002D0000511A301A4011010402177292708023C31
:1002E00003187729851D77298B158B12A701A61076
:1002F000261D89290508103A850025082402031CBB
:1003000088290511A301A401A5010512101040219F
:10031000261110184E298B1A4E298B1563000000E8
:100320004E298A110A124D2983120B1C9E298B1DFE
:100330009E2926140508AE000B108B110B1DA72952
:100340008B1EA7293D308100A70A0B11A6140C1C97
:10035000B92983160C1CB929FF3083128F008E0037
:10036000A30A3C302302031CB729A40AA3010C10E2
:1003700026158312220E8400210E8A00200E83008F
:06038000DF0E5F0E090014
:02400E00C43FAD
:00000001FF
