:020000008E2848
:08000800DF00030E8312A000CB
:0E0010000A0EA100040EA2008A110A12942802
:10002000FF238312831683169000831283120830F5
:10003000831685008312850083169F010730831283
:100040009900883083168100961583128B15A801BC
:10005000A901AA01A701A501A6018B170B1708008A
:1000600010208A110A12281C3D288101A301A40135
:10007000A901AA018B1628106C28281D6C282903B9
:10008000031D652885196528A708031D5028A501AB
:10009000A601A301A4010A30A700051085145C285D
:1000A00027080A3A031D59281430A70005148510A3
:1000B0005C28A701051085102708003C031862285A
:1000C00005156B2805118B126B282908023C0318B3
:1000D0006B2885198B152811A81C8828260827024B
:1000E000AB002B080A3C03187A280508013A850062
:1000F00085107E2805100508023A8500270826028B
:10010000031C87280511A701051085108B12A81064
:100110008B1A31288B156300000031288312A3014C
:10012000A4018A110A12302883120B1C9E288B1DF1
:100130009E2828140508AC000B108B110B1DCC2831
:100140008B1ECC281030A3070318A40AF430240215
:10015000031DAC2824302302031CBF282430A30233
:10016000F430031CA403A402A7080319BF28A50A9E
:1001700025083C3A031DBE28A60AA501A8140A308A
:1001800029020318CB28AA0A2A08C83A031DCB283B
:10019000A90AAA0128150B11220E8400210E8A003B
:0A01A000200E8300DF0E5F0E090041
:02400E00C13FB0
:00000001FF
