:02000000AE2828
:08000800DF00030E8312A000CB
:0E0010000A0EA100040EA2008A110A12B128E5
:100020000830831685008312850083169F010730F0
:10003000831299001130831681003D3083128100B4
:1000400006309000FF308F00CE308E0083160C14E7
:10005000961583128B15A601A701A501A301A40182
:100060008B170B1708001020261C3B283D30810001
:100070008B1626107828A61C78282703031D6E28C7
:1000800085196E28A508031D4B280130A50005120F
:100090000510851462282503031D54280230A5008D
:1000A00005120514851062282508023A031D5E28F2
:1000B0000330A5000516051085106228A50105125C
:1000C000051085102508003C031869280515101433
:1000D00077280511A301A401101077282708023CF6
:1000E00003187728851D77288B158B12A701A6107A
:1000F000261DA62824082502A8002808023C03186B
:1001000087280508103A85000510851099282408CD
:100110002502A9002908013C0318942805120508A6
:10012000013A850085109928051205100508023A44
:10013000850025082402031CA5280511A301A4019C
:10014000A50105120510851010102611101834286D
:100150008B1A34288B156300000034288A110A1288
:10016000332883120B1CBB288B1DBB2826140508C3
:10017000AA000B108B110B1DC4288B1EC4283D3008
:100180008100A70A0B11A6140C1CD72883160C1C7F
:10019000D728FF3083128F00CE308E00A30A3C3068
:1001A0002302031CD528A40AA3010C1026158312D0
:1001B000220E8400210E8A00200E8300DF0E5F0EC7
:0201C000090034
:02400E00C43FAD
:00000001FF
